:100000000C9434000C944C000C943E000C943E0074
:100010000C943E000C943E000C943E000C943E0068
:100020000C943E000C943E000C943E000C943E0058
:100030000C943E000C943E000C943E000C943E0048
:100040000C943E000C943E000C943E000C943E0038
:100050000C943E000C943E000C943E000C943E0028
:100060000C943E000C943E0011241FBECFEFD8E04C
:10007000DEBFCDBF0E9440000C946D000C940000C8
:1000800052985A9A209A28988091690083608093A8
:100090006900E89A7894FFCF1F920F920FB60F92E3
:1000A00011242F933F938F939F93EF93FF93289A5D
:1000B00080E197E220E931E0F9013197F1F701970A
:1000C000D9F72898FF91EF919F918F913F912F91B0
:0E00D0000F900FBE0F901F901895F894FFCF61
:00000001FF
