:100000000C9434000C943E000C943E000C943E0082
:100010000C943E000C943E000C943E000C943E0068
:100020000C943E000C943E000C943E000C943E0058
:100030000C943E000C943E000C943E000C943E0048
:100040000C943E000C943E000C943E000C943E0038
:100050000C943E000C943E000C943E000C943E0028
:100060000C943E000C943E0011241FBECFEFD8E04C
:10007000DEBFCDBF0E9440000C945E000C940000D7
:100080008FE384B957985F9A30E081E040E951E00E
:1000900001C0822F29B1221F2227221F8130C9F7D8
:1000A0002223B9F784EF91E0FA013197F1F7019734
:1000B000D9F73F5F832F8F7385B9EBCFF894FFCFCC
:00000001FF
