:100000000C9434000C9448000C9446000C94460068
:100010000C9446000C9446000C9446000C94460048
:100020000C9446000C9446000C9446000C94460038
:100030000C9446000C9446000C9446000C94460028
:100040000C9446000C9446000C9446000C94460018
:100050000C9446000C9446000C9446000C94460008
:100060000C9446000C94460011241FBECFEFD8E03C
:10007000DEBFCDBF11E0A0E0B1E001C01D92A13014
:10008000B107E1F70E9470000C947C000C94000012
:100090001F920F920FB60F9211242F933F938F93BD
:1000A0009F93EF93FF9384EF91E020E931E0F90112
:1000B0003197F1F70197D9F7809100018F5F809315
:1000C0000001809100018F7385B9FF91EF919F919D
:1000D0008F913F912F910F900FBE0F901F90189509
:1000E0008FE384B952985A9AE89A809169008360A4
:0C00F000809369007894FFCFF894FFCF54
:00000001FF
