:100000000C9434000C9448000C9470000C9446003E
:100010000C9446000C9446000C9446000C94460048
:100020000C9446000C9446000C9446000C94460038
:100030000C9446000C9446000C9446000C94460028
:100040000C9446000C9446000C9446000C94460018
:100050000C9446000C9446000C9446000C94460008
:100060000C9446000C94460011241FBECFEFD8E03C
:10007000DEBFCDBF11E0A0E0B1E001C01D92A13014
:10008000B107E1F70E9499000C94B0000C940000B5
:100090001F920F920FB60F9211242F933F938F93BD
:1000A0009F93EF93FF9388EE93E020E931E0F9010D
:1000B0003197F1F70197D9F780910001880F80936C
:1000C0000001809100018F7385B9FF91EF919F919D
:1000D0008F913F912F910F900FBE0F901F90189509
:1000E0001F920F920FB60F9211242F933F938F936D
:1000F0009F93EF93FF9388EE93E020E931E0F901BD
:100100003197F1F70197D9F780910001880F81604D
:1001100080930001809100018F7385B9FF91EF9169
:100120009F918F913F912F910F900FBE0F901F9035
:1001300018958FE384B98AB1837F8AB98BB18C60BB
:100140008BB98DB383608DBB809169008A60809389
:100150006900809169008A7F809369007894FFCF5D
:04016000F894FFCF41
:00000001FF
