:100000000C9434000C9440000C943E000C943E0080
:100010000C943E000C943E000C943E000C943E0068
:100020000C943E000C943E000C943E000C943E0058
:100030000C943E000C943E000C943E000C943E0048
:100040000C943E000C943E000C943E000C943E0038
:100050000C943E000C943E000C943E000C943E0028
:100060000C943E000C943E0011241FBECFEFD8E04C
:10007000DEBFCDBF0E9463000C946E000C940000A4
:100080001F920F920FB60F9211242F933F938F93CD
:100090009F93EF93FF9384EF91E020E931E0F90122
:1000A0003197F1F70197D9F785B191E0892785B9A3
:1000B000FF91EF919F918F913F912F910F900FBEE4
:1000C0000F901F901895209A52985A9AE89A80910A
:1000D00069008360809369007894FFCFF894FFCF24
:00000001FF
