:100000000C9434000C943E000C943E000C943E0082
:100010000C943E000C943E000C943E000C943E0068
:100020000C943E000C943E000C943E000C943E0058
:100030000C943E000C943E000C943E000C943E0048
:100040000C943E000C943E000C943E000C943E0038
:100050000C943E000C943E000C943E000C943E0028
:100060000C943E000C943E0011241FBECFEFD8E04C
:10007000DEBFCDBF0E9453000C9482000C940000A0
:1000800081E680937C0087E880937A0008958091D0
:100090007A00806480937A0080917A0086FDFCCF9C
:1000A00080917900089539988FEF8AB981E680931D
:1000B0007C0087E880937A0041E050E020E931E05D
:1000C00080917A00806480937A0080917A0086FD26
:1000D000FCCF8091790082958695877051F0BA01A6
:1000E00002C0660F771F8A95E2F7CB0181508BB96A
:1000F00001C01BB888EE93E0F9013197F1F7019741
:08010000F9F2FACFF894FFCFE9
:00000001FF
