:100000000C9434000C943E000C943E000C943E0082
:100010000C943E000C943E000C943E000C943E0068
:100020000C943E000C943E000C943E000C943E0058
:100030000C943E000C943E000C943E000C943E0048
:100040000C943E000C943E000C943E000C943E0038
:100050000C943E000C943E000C943E000C943E0028
:100060000C943E000C943E0011241FBECFEFD8E04C
:10007000DEBFCDBF0E9453000C9475000C940000AD
:1000800081E280937C0087E880937A0008958091D4
:100090007A00806480937A0080917A0086FDFCCF9C
:1000A0008091790008953998509A81E280937C007C
:1000B00087E880937A0020E931E080917A008064BB
:1000C00080937A0080917A0086FDFCCF8091790040
:1000D000853610F0589A01C0589888EE93E0F901DF
:0E00E0003197F1F7019749F3FACFF894FFCF6B
:00000001FF
