:100000000C9434000C9449000C9449000C94490061
:100010000C9449000C9449000C9449000C9449003C
:100020000C9449000C9449000C9449000C9449002C
:100030000C9449000C9449000C9449000C9449001C
:100040000C9449000C9449000C9449000C9449000C
:100050000C9449000C9449000C9449000C944900FC
:100060000C9449000C94490011241FBECFEFD8E036
:10007000DEBFCDBF11E0A0E0B1E0E0E5F1E002C0FD
:1000800005900D92AA32B107D9F70E9473000C9423
:10009000A6000C9400001092C50087E68093C4006F
:1000A00088E18093C10086E08093C2000895982F74
:1000B0008091C00085FFFCCF9093C6000895809189
:1000C000C00087FFFCCF8091C6000895FC0107C0E7
:1000D0008091C00085FFFCCF31969093C60090813F
:1000E0009923B1F70895DF93CF9300D000D0CDB717
:1000F000DEB71092C50087E68093C40088E1809344
:10010000C10086E08093C20080E091E00E9466001A
:1001100085E191E00E94660019821A821B821C828E
:100120000BC089819A81AB81BC810196A11DB11D53
:1001300089839A83AB83BC8389819A81AB81BC819B
:1001400080549D40A340B040FCF6EBCFF894FFCF25
:100150004A616E6974682E202D20452F32302F326F
:1001600033310D0A0053616D65657261202D2045A4
:0A0170002F32302F3231320D0A0019
:00000001FF
