:100000000C9434000C9446000C9446000C9446006A
:100010000C9446000C9446000C9446000C94460048
:100020000C9446000C9446000C9446000C94460038
:100030000C9446000C9481000C9446000C944600ED
:100040000C9464000C9446000C9446000C944600FA
:100050000C9446000C9446000C9446000C94460008
:100060000C9446000C94460011241FBECFEFD8E03C
:10007000DEBFCDBF11E0A0E0B1E001C01D92A13014
:10008000B107E1F70E9448000C9499000C9400001D
:10009000259A209A16BC14BC25E025BD8BE791EE6D
:1000A00090938500809384001092800020938100BB
:1000B00080916E00816080936E0080916F008160FE
:1000C00080936F007894FFCF1F920F920FB60F921C
:1000D00011248F939F93809100018F5F8093000183
:1000E00080910001833030F085B190E2892785B995
:1000F000109200019F918F910F900FBE0F901F9053
:1001000018951F920F920FB60F9211248F939F9301
:1001100085B191E0892785B98BE791EE90938500B1
:10012000809384009F918F910F900FBE0F901F902E
:060130001895F894FFCFC2
:00000001FF
