:100000000C9434000C9446000C9446000C9446006A
:100010000C9446000C9446000C9446000C94460048
:100020000C9446000C9446000C9446000C94460038
:100030000C9446000C9446000C9446000C94460028
:100040000C9454000C9446000C9446000C9446000A
:100050000C9446000C9446000C9446000C94460008
:100060000C9446000C94460011241FBECFEFD8E03C
:10007000DEBFCDBF11E0A0E0B1E001C01D92A13014
:10008000B107E1F70E9448000C9471000C94000045
:10009000259A16BC14BC85E085BD80916E008160F8
:1000A00080936E007894FFCF1F920F920FB60F923D
:1000B00011248F939F93809100018F5F80930001A3
:1000C00080910001863030F085B190E2892785B9B2
:1000D000109200019F918F910F900FBE0F901F9073
:0600E0001895F894FFCF13
:00000001FF
