:100000000C9434000C9449000C9449000C94490061
:100010000C9449000C9449000C9449000C9449003C
:100020000C9449000C9449000C9449000C9449002C
:100030000C9449000C9449000C9449000C9449001C
:100040000C9449000C9449000C9449000C9449000C
:100050000C9449000C9449000C9449000C944900FC
:100060000C9449000C94490011241FBECFEFD8E036
:10007000DEBFCDBF11E0A0E0B1E0ECE7F1E002C0EF
:1000800005900D92A630B107D9F70E945F000C943D
:10009000BC000C94000086EF92EC90938500809356
:1000A00084001092800085E080938100B09BFECF99
:1000B000109280001092810081E086BB0895DF924B
:1000C000EF92FF920F931F93DF93CF9300D000D056
:1000D00000D0CDB7DEB784B18F6084B9DE01119650
:1000E000E0E0F1E086E001900D928150E1F7259A81
:1000F00000E07E010894E11CF11C80E2D82E85B15D
:1001000010E0F701E00FF11F807F9081892B85B906
:100110000E944B00C801019666E070E00E949500C5
:10012000082F85B18D2585B9EACF97FB092E0726C3
:100130000AD077FD04D00CD006D000201AF47095B8
:1001400061957F4F0895F6F7909581959F4F08959B
:10015000AA1BBB1B51E107C0AA1FBB1FA617B707ED
:1001600010F0A61BB70B881F991F5A95A9F7809509
:0C0170009095BC01CD010895F894FFCFDC
:06017C0001020408040268
:00000001FF
