:100000000C9434000C943E000C943E000C943E0082
:100010000C943E000C943E000C943E000C943E0068
:100020000C943E000C943E000C943E000C943E0058
:100030000C943E000C943E000C943E000C943E0048
:100040000C943E000C943E000C943E000C943E0038
:100050000C943E000C943E000C943E000C943E0028
:100060000C943E000C943E0011241FBECFEFD8E04C
:10007000DEBFCDBF0E9454000C945D000C940000C4
:100080008BE791EE9093850080938400109280001E
:1000900085E080938100B09BFECF1092800010928B
:1000A000810081E086BB08951F93259A10E285B1F7
:0E00B000812785B90E944000FACFF894FFCF57
:00000001FF
