:100000000C9434000C943E000C943E000C943E0082
:100010000C943E000C943E000C943E000C943E0068
:100020000C943E000C943E000C943E000C943E0058
:100030000C943E000C943E000C943E000C943E0048
:100040000C943E000C943E000C943E000C943E0038
:100050000C943E000C943E000C943E000C943E0028
:100060000C943E000C943E0011241FBECFEFD8E04C
:10007000DEBFCDBF0E947E000C94EA000C9400000D
:100080001092C50087E68093C40088E18093C10088
:1000900086E08093C2000895982F8091C00085FF6C
:1000A000FCCF9093C60080E29EE40197F1F708959B
:1000B0008091C00087FFFCCF8091C6000895F99918
:1000C000FECF92BD81BD60BDFA9AF99A0895F99963
:1000D000FECF92BD81BDF89A80B50895CF93DF938E
:1000E000C0E0D0E0CE016FEF0E945F00219684E077
:1000F000C030D807B9F7DF91CF9108950F931F93C0
:10010000CF93DF931092C50087E68093C40088E107
:100110008093C10086E08093C20080E197E220E9ED
:1001200031E0F9013197F1F70197D9F70E946E009C
:10013000C0E0D0E000E911E00BC0CE010E945F00FA
:1001400088EC90E0F8013197F1F70197D9F7219603
:100150008091C00087FFFCCF6091C6006D3049F4EC
:1001600020E030E0ABE560E27EE45DE5E0E4FCE960
:100170002DC084E0C030D80701F7F2CFF999FECF47
:1001800032BD21BDF89A40B5442319F18091C000D9
:1001900085FFFCCFA093C600CB010197F1F78091BA
:1001A000C00085FFFCCF4093C600CB010197F1F75B
:1001B0008091C00085FFFCCF5093C600CB01019712
:1001C000F1F7CF010197F1F72F5F3F4F2C173D0754
:0801D000A8F2FFCFF894FFCF65
:00000001FF
