:100000000C9434000C943E000C943E000C943E0082
:100010000C943E000C943E000C943E000C943E0068
:100020000C943E000C943E000C943E000C943E0058
:100030000C943E000C943E000C943E000C943E0048
:100040000C943E000C943E000C943E000C943E0038
:100050000C943E000C943E000C943E000C943E0028
:100060000C943E000C943E0011241FBECFEFD8E04C
:10007000DEBFCDBF0E9447000C947A000C940000B4
:1000800095B5987F95BD95B5982B95BD0895DF934F
:10009000CF9300D000D0CDB7DEB7569A83E884BDA9
:1000A00080E887BD85E0898384E08A8383E08B8351
:1000B00082E08C8320E030E0BE016F5F7F4F40E93B
:1000C00051E085B5887F85BD85B5FB01E20FF31F43
:1000D0009081892B85BD80E197E2FA013197F1F794
:1000E0000197D9F72F5F3F4F2430310554F320E0BB
:0800F00030E0E7CFF894FFCFE8
:00000001FF
