:100000000C9434000C943E000C943E000C943E0082
:100010000C943E000C943E000C943E000C943E0068
:100020000C943E000C943E000C943E000C943E0058
:100030000C943E000C943E000C943E000C943E0048
:100040000C943E000C943E000C943E000C943E0038
:100050000C943E000C943E000C943E000C943E0028
:100060000C943E000C943E0011241FBECFEFD8E04C
:10007000DEBFCDBF0E9440000C945C000C940000D9
:10008000569A84B5816084BD84B5826084BD85B58F
:10009000877F85BD84B5806884BD84B58F7B84BD32
:1000A00085B5826085BD85B5816085BD85B58B7F51
:0C00B00085BD80E887BDFFCFF894FFCF2E
:00000001FF
