:100000000C9434000C9449000C9449000C94490061
:100010000C9449000C9449000C9449000C9449003C
:100020000C9449000C9449000C9449000C9449002C
:100030000C9449000C9449000C9449000C9449001C
:100040000C9449000C9449000C9449000C9449000C
:100050000C9449000C9449000C9449000C944900FC
:100060000C9449000C94490011241FBECFEFD8E036
:10007000DEBFCDBF11E0A0E0B1E0ECE9F1E002C0ED
:1000800005900D92A830B107D9F70E9472000C9428
:10009000CC000C9400009C0140E050E096E0220F60
:1000A000331F441F551F9A95D1F760E074E284EF27
:1000B00090E00E94AA0021503040404050403093D0
:1000C000870020938600569547953795279530935E
:1000D0008B0020938A0082E2809380008BE18093E2
:1000E00081000895CF92DF92EF92FF921F93DF93EA
:1000F000CF93CDB7DEB728970FB6F894DEBF0FBE0B
:10010000CDBF549ADE011196E0E0F1E088E0019065
:100110000D928150E1F710E06E010894C11CD11CD2
:1001200030E9E32E31E0F32EE12FF0E0EE0FFF1F78
:10013000EC0DFD1D808191810E944B0088E59BE1C3
:10014000F7013197F1F70197D9F71F5F143060F38A
:1001500010E0EACFA1E21A2EAA1BBB1BFD010DC0C5
:10016000AA1FBB1FEE1FFF1FA217B307E407F50767
:1001700020F0A21BB30BE40BF50B661F771F881F43
:10018000991F1A9469F760957095809590959B01D9
:0C019000AC01BD01CF010895F894FFCF31
:08019C0006014A0188010B0273
:00000001FF
