:100000000C9434000C943E000C943E000C943E0082
:100010000C943E000C943E000C943E000C943E0068
:100020000C943E000C943E000C943E000C943E0058
:100030000C943E000C943E000C943E000C943E0048
:100040000C943E000C943E000C943E000C943E0038
:100050000C943E000C943E000C943E000C943E0028
:100060000C943E000C943E0011241FBECFEFD8E04C
:10007000DEBFCDBF0E9440000C9473000C940000C2
:1000800084B18F6084B920E030E061E070E040E945
:1000900051E011C0CB01022E02C0880F991F0A94B3
:1000A000E2F785B980ED97E0FA013197F1F7019712
:1000B000D9F72F5F3F4F2430310564F322E030E061
:1000C000CB01022E02C0880F991F0A94E2F785B96E
:1000D00080ED97E0FA013197F1F70197D9F72150B8
:0A00E000304071F7E8CFF894FFCF2D
:00000001FF
